S00F0000436F6E74726F6C2E7372656334
S11300000C943A000C9444000C9444000C94440066
S11300100C9444000C9444000C9444000C9444004C
S11300200C9444000C9444000C9444000C9444003C
S11300300C9444000C9444000C9444000C9444002C
S11300400C9444000C9444000C9444000C9444001C
S11300500C9444006B006E007100740077007A0009
S11300607D0080008300860089008C008F00920050
S11300709500980011241FBECFE5D8E0DEBFCDBFA8
S11300800E9453000C94A1000C94000084B7806873
S113009084BF84B7806884BF8FEF8ABB17BA84BBE0
S11300A01BBA15BA08950E94460015E1D0E427E072
S11300B0C0E2B2E1A0E984E19CE076E061E045E0E1
S11300C054E032E0E6B3F0E0E031F105D8F7E65D64
S11300D0FF4F0C949B009BBB35BBF4CF8BBB35BB54
S11300E0F1CF9BBB25BBEECF8BBB55BBEBCF9BBBF3
S11300F015BAE8CF8BBB45BBE5CF9BBB45BBE2CF75
S11301008BBB15BADFCF8BBB65BBDCCF9BBB75BB91
S1130110D9CF8BBB25BBD6CFABBB15BAD3CFBBBB1B
S113012015BAD0CFCBBB25BBCDCFDBBB25BBCACF4C
S11301301BBB15BAC7CFEE0FFF1F0590F491E02D3E
S10901400994F894FFCFBE
S9030000FC
