S014000050726F6772616D436F756E742E737265632F
S11300000C942A000C9434000C9434000C943400A6
S11300100C9434000C9434000C9434000C9434008C
S11300200C9434000C9434000C9434000C9434007C
S11300300C9434000C9434000C9434000C9434006C
S11300400C9434000C9434000C9434000C9434005C
S11300500C94340011241FBECFE5D8E0DEBFCDBF21
S11300600E9443000C947C000C94000084B78068C8
S113007084BF84B7806884BF8FEF8ABB17BA14BA71
S113008011BA1BBA08950E94360020E090E086B3AE
S1130090911124C0882351F143B363B393B333B3B1
S11300A073B350B3442394F0907430712F5F65FFA1
S11300B003C0311105C01DC0992349F0311107C097
S11300C0972F9F7073FD906F290F01C0252FE7EACA
S11300D0F1E63197F1F700C0000008C0811106C0B5
S11300E0E7EAF1E63197F1F700C000002BBB982F47
S10F00F0CECF9111E5CFEBCFF894FFCFF9
S9030000FC
