:100000000C9432000C943C000C943C000C943C008A
:100010000C943C000C943C000C943C000C943C0070
:100020000C943C000C943C000C943C000C943C0060
:100030000C943C000C943C000C943C000C943C0050
:100040000C943C000C943C000C943C000C943C0040
:100050000C943C00630066006E0081007100770024
:100060007A007E0011241FBECFE5D8E0DEBFCDBFF1
:100070000E944C000C948E000C94000084B78068A1
:1000800084BF84B7806884BF8FEF8ABB17BA84BBF4
:1000900011BA1BBA15BA08950E943E006FEF41E0F5
:1000A00050E086B396B3292F2F7030B3E82FE29536
:1000B000EF708E2F90E08830910518F5FC01E65D19
:1000C000FF4F0C948800822F830F1CC0822F90E07A
:1000D00002C0959587953A95E2F714C0822F832B3D
:1000E00011C0822F01C0880F3A95EAF70BC0822F0A
:1000F000832308C0822F832B809504C0822F831B0B
:1001000001C0862F8BBB942F8111952F95BBC9CF32
:10011000EE0FFF1F0590F491E02D0994F894FFCFA6
:00000001FF
