:100000000C942A000C943C000C943C000C943C0092
:100010000C943C000C943C000C943C000C943C0070
:100020000C943C000C943C000C943C000C943C0060
:100030000C943C000C943C000C943C000C943C0050
:100040000C943C000C943C000C943C000C943C0040
:100050000C943C0011241FBECFE5D8E0DEBFCDBF1D
:1000600020E0A0E6B0E001C01D92A037B207E1F7A2
:100070000E944B000C947B000C94000084B78068B5
:1000800084BF84B7806884BF8FEF8ABB17BA14BA65
:1000900011BA12BA08950E943E00E6B3F0E0E05AA9
:1000A000FF4F80818BBB90E001C0982F83B382709B
:1000B00033B3E6B3F0E0E05AFF4F20812BBB911140
:1000C00011C0882391F330FF06C0E6B390B3F0E08F
:1000D000E05AFF4F9083E7EAF1E63197F1F700C06D
:1000E0000000E3CF8111E1CFE7EAF1E63197F1F7C4
:0A00F00000C00000DACFF894FFCF43
:00000001FF
