S0140000526567697374657246696C652E737265634B
S11300000C942A000C943F000C943F000C943F0085
S11300100C943F000C943F000C943F000C943F0060
S11300200C943F000C943F000C943F000C943F0050
S11300300C943F000C943F000C943F000C943F0040
S11300400C943F000C943F000C943F000C943F0030
S11300500C943F0011241FBECFE5D8E0DEBFCDBF16
S113006010E0A0E6B0E0ECE0F1E002C005900D92F3
S1130070A037B107D9F70E944E000C9484000C9469
S1130080000084B7806884BF84B7806884BF8FEF22
S11300908ABB17BA14BA11BA12BA08950E94410061
S11300A030E001C0392F93B39072A6B3E6B3A295A2
S11300B0AF70B0E0A05ABF4F8C91282F2295207FBB
S11300C0EF70F0E0E05AFF4F80818F70822B8BBB82
S11300D0311111C0992331F39C9B06C0E0B383B363
S11300E0F0E0E05AFF4F8083E7EAF1E63197F1F759
S11300F000C00000D7CF9111D5CFE7EAF1E63197E0
S10F0100F1F700C00000CECFF894FFCF50
S113010C0000000000000F000000000000000000D0
S9030000FC
