S0190000496E737472756374696F6E4D656D6F72792E73726563F0
S11300000C942A000C943F000C943F000C943F0085
S11300100C943F000C943F000C943F000C943F0060
S11300200C943F000C943F000C943F000C943F0050
S11300300C943F000C943F000C943F000C943F0040
S11300400C943F000C943F000C943F000C943F0030
S11300500C943F0011241FBECFE5D8E0DEBFCDBF16
S113006010E0A0E6B0E0EAEFF0E002C005900D92E7
S1130070AA3AB107D9F70E944F000C947B000C9464
S1130080000084B7806884BF84B7806884BF8FEF22
S11300908ABB17BA84BB81BB1BBA15BA08950E94E8
S11300A04100E6B3F0E0EE0FFF1FE05AFF4F8081FE
S11300B082958F708BBBA6B3E6B3B0E0AA0FBB1FCB
S11300C0A05ABF4F8C9120E1829FC0011124F0E01F
S11300D0EE0FFF1FE05AFF4F918192959F70892B7D
S11300E085BBE6B3F0E0EE0FFF1FE05AFF4F8181BE
S10D00F08F7082BBD6CFF894FFCFC7
S11300FA0262133522343252423253336454733512
S113010A85519344A443C342F3320303C525F545F9
S113011A040440017114D12E7114A114E12E711436
S113012AC153C610A661F173C670A6617661F61052
S10D013A41017661F6104101B000A6
S9030000FC
